{
  "_format": "hh-sol-artifact-1",
  "contractName": "CompanyRegistry",
  "sourceName": "contracts/CompanyRegistry.sol",
  "abi": [
    {
      "anonymous": false,
      "inputs": [
        {
          "indexed": true,
          "internalType": "uint256",
          "name": "companyId",
          "type": "uint256"
        },
        {
          "indexed": true,
          "internalType": "address",
          "name": "admin",
          "type": "address"
        },
        {
          "indexed": false,
          "internalType": "string",
          "name": "name",
          "type": "string"
        }
      ],
      "name": "CompanyRegistered",
      "type": "event"
    },
    {
      "inputs": [
        {
          "internalType": "uint256",
          "name": "",
          "type": "uint256"
        }
      ],
      "name": "companies",
      "outputs": [
        {
          "internalType": "address",
          "name": "admin",
          "type": "address"
        },
        {
          "internalType": "string",
          "name": "name",
          "type": "string"
        },
        {
          "internalType": "bool",
          "name": "exists",
          "type": "bool"
        }
      ],
      "stateMutability": "view",
      "type": "function"
    },
    {
      "inputs": [
        {
          "internalType": "uint256",
          "name": "companyId",
          "type": "uint256"
        }
      ],
      "name": "getCompany",
      "outputs": [
        {
          "components": [
            {
              "internalType": "address",
              "name": "admin",
              "type": "address"
            },
            {
              "internalType": "string",
              "name": "name",
              "type": "string"
            },
            {
              "internalType": "bool",
              "name": "exists",
              "type": "bool"
            }
          ],
          "internalType": "struct CompanyRegistry.Company",
          "name": "",
          "type": "tuple"
        }
      ],
      "stateMutability": "view",
      "type": "function"
    },
    {
      "inputs": [
        {
          "internalType": "uint256",
          "name": "companyId",
          "type": "uint256"
        },
        {
          "internalType": "address",
          "name": "user",
          "type": "address"
        }
      ],
      "name": "isCompanyAdmin",
      "outputs": [
        {
          "internalType": "bool",
          "name": "",
          "type": "bool"
        }
      ],
      "stateMutability": "view",
      "type": "function"
    },
    {
      "inputs": [],
      "name": "nextCompanyId",
      "outputs": [
        {
          "internalType": "uint256",
          "name": "",
          "type": "uint256"
        }
      ],
      "stateMutability": "view",
      "type": "function"
    },
    {
      "inputs": [
        {
          "internalType": "string",
          "name": "name",
          "type": "string"
        }
      ],
      "name": "registerCompany",
      "outputs": [
        {
          "internalType": "uint256",
          "name": "",
          "type": "uint256"
        }
      ],
      "stateMutability": "nonpayable",
      "type": "function"
    }
  ],
  "bytecode": "0x608060405234801561001057600080fd5b50610e36806100206000396000f3fe608060405234801561001057600080fd5b50600436106100565760003560e01c80625441941461005b5780630e522f3f1461008b5780632813d19d146100bb57806357d13917146100ed578063d8d3c8291461011d575b600080fd5b6100756004803603810190610070919061064b565b61013b565b60405161008291906106b1565b60405180910390f35b6100a560048036038101906100a09190610756565b6102bc565b6040516100b291906107b1565b60405180910390f35b6100d560048036038101906100d091906107cc565b61032b565b6040516100e493929190610898565b60405180910390f35b610107600480360381019061010291906107cc565b61040a565b604051610114919061098e565b60405180910390f35b61012561059d565b60405161013291906106b1565b60405180910390f35b600080600080815480929190610150906109df565b91905055905060405180606001604052803373ffffffffffffffffffffffffffffffffffffffff16815260200185858080601f016020809104026020016040519081016040528093929190818152602001838380828437600081840152601f19601f820116905080830192505050505050508152602001600115158152506001600083815260200190815260200160002060008201518160000160006101000a81548173ffffffffffffffffffffffffffffffffffffffff021916908373ffffffffffffffffffffffffffffffffffffffff160217905550602082015181600101908161023d9190610c62565b5060408201518160020160006101000a81548160ff0219169083151502179055509050503373ffffffffffffffffffffffffffffffffffffffff16817fb942b64496751623fe8e67d13435346a352981ddb97189053829c967cc046df986866040516102aa929190610d70565b60405180910390a38091505092915050565b60008173ffffffffffffffffffffffffffffffffffffffff166001600085815260200190815260200160002060000160009054906101000a900473ffffffffffffffffffffffffffffffffffffffff1673ffffffffffffffffffffffffffffffffffffffff1614905092915050565b60016020528060005260406000206000915090508060000160009054906101000a900473ffffffffffffffffffffffffffffffffffffffff169080600101805461037490610a85565b80601f01602080910402602001604051908101604052809291908181526020018280546103a090610a85565b80156103ed5780601f106103c2576101008083540402835291602001916103ed565b820191906000526020600020905b8154815290600101906020018083116103d057829003601f168201915b5050505050908060020160009054906101000a900460ff16905083565b6104126105a3565b6001600083815260200190815260200160002060020160009054906101000a900460ff16610475576040517f08c379a000000000000000000000000000000000000000000000000000000000815260040161046c90610de0565b60405180910390fd5b600160008381526020019081526020016000206040518060600160405290816000820160009054906101000a900473ffffffffffffffffffffffffffffffffffffffff1673ffffffffffffffffffffffffffffffffffffffff1673ffffffffffffffffffffffffffffffffffffffff1681526020016001820180546104f990610a85565b80601f016020809104026020016040519081016040528092919081815260200182805461052590610a85565b80156105725780601f1061054757610100808354040283529160200191610572565b820191906000526020600020905b81548152906001019060200180831161055557829003601f168201915b505050505081526020016002820160009054906101000a900460ff1615151515815250509050919050565b60005481565b6040518060600160405280600073ffffffffffffffffffffffffffffffffffffffff168152602001606081526020016000151581525090565b600080fd5b600080fd5b600080fd5b600080fd5b600080fd5b60008083601f84011261060b5761060a6105e6565b5b8235905067ffffffffffffffff811115610628576106276105eb565b5b602083019150836001820283011115610644576106436105f0565b5b9250929050565b60008060208385031215610662576106616105dc565b5b600083013567ffffffffffffffff8111156106805761067f6105e1565b5b61068c858286016105f5565b92509250509250929050565b6000819050919050565b6106ab81610698565b82525050565b60006020820190506106c660008301846106a2565b92915050565b6106d581610698565b81146106e057600080fd5b50565b6000813590506106f2816106cc565b92915050565b600073ffffffffffffffffffffffffffffffffffffffff82169050919050565b6000610723826106f8565b9050919050565b61073381610718565b811461073e57600080fd5b50565b6000813590506107508161072a565b92915050565b6000806040838503121561076d5761076c6105dc565b5b600061077b858286016106e3565b925050602061078c85828601610741565b9150509250929050565b60008115159050919050565b6107ab81610796565b82525050565b60006020820190506107c660008301846107a2565b92915050565b6000602082840312156107e2576107e16105dc565b5b60006107f0848285016106e3565b91505092915050565b61080281610718565b82525050565b600081519050919050565b600082825260208201905092915050565b60005b83811015610842578082015181840152602081019050610827565b60008484015250505050565b6000601f19601f8301169050919050565b600061086a82610808565b6108748185610813565b9350610884818560208601610824565b61088d8161084e565b840191505092915050565b60006060820190506108ad60008301866107f9565b81810360208301526108bf818561085f565b90506108ce60408301846107a2565b949350505050565b6108df81610718565b82525050565b600082825260208201905092915050565b600061090182610808565b61090b81856108e5565b935061091b818560208601610824565b6109248161084e565b840191505092915050565b61093881610796565b82525050565b600060608301600083015161095660008601826108d6565b506020830151848203602086015261096e82826108f6565b9150506040830151610983604086018261092f565b508091505092915050565b600060208201905081810360008301526109a8818461093e565b905092915050565b7f4e487b7100000000000000000000000000000000000000000000000000000000600052601160045260246000fd5b60006109ea82610698565b91507fffffffffffffffffffffffffffffffffffffffffffffffffffffffffffffffff8203610a1c57610a1b6109b0565b5b600182019050919050565b7f4e487b7100000000000000000000000000000000000000000000000000000000600052604160045260246000fd5b7f4e487b7100000000000000000000000000000000000000000000000000000000600052602260045260246000fd5b60006002820490506001821680610a9d57607f821691505b602082108103610ab057610aaf610a56565b5b50919050565b60008190508160005260206000209050919050565b60006020601f8301049050919050565b600082821b905092915050565b600060088302610b187fffffffffffffffffffffffffffffffffffffffffffffffffffffffffffffffff82610adb565b610b228683610adb565b95508019841693508086168417925050509392505050565b6000819050919050565b6000610b5f610b5a610b5584610698565b610b3a565b610698565b9050919050565b6000819050919050565b610b7983610b44565b610b8d610b8582610b66565b848454610ae8565b825550505050565b600090565b610ba2610b95565b610bad818484610b70565b505050565b5b81811015610bd157610bc6600082610b9a565b600181019050610bb3565b5050565b601f821115610c1657610be781610ab6565b610bf084610acb565b81016020851015610bff578190505b610c13610c0b85610acb565b830182610bb2565b50505b505050565b600082821c905092915050565b6000610c3960001984600802610c1b565b1980831691505092915050565b6000610c528383610c28565b9150826002028217905092915050565b610c6b82610808565b67ffffffffffffffff811115610c8457610c83610a27565b5b610c8e8254610a85565b610c99828285610bd5565b600060209050601f831160018114610ccc5760008415610cba578287015190505b610cc48582610c46565b865550610d2c565b601f198416610cda86610ab6565b60005b82811015610d0257848901518255600182019150602085019450602081019050610cdd565b86831015610d1f5784890151610d1b601f891682610c28565b8355505b6001600288020188555050505b505050505050565b82818337600083830152505050565b6000610d4f8385610813565b9350610d5c838584610d34565b610d658361084e565b840190509392505050565b60006020820190508181036000830152610d8b818486610d43565b90509392505050565b7f436f6d70616e7920646f6573206e6f7420657869737400000000000000000000600082015250565b6000610dca601683610813565b9150610dd582610d94565b602082019050919050565b60006020820190508181036000830152610df981610dbd565b905091905056fea26469706673582212206fc5c306dca90015119c4d0c0a8cf6ce814994c7128f2cf40c345c377b1a6e4f64736f6c63430008140033",
  "linkReferences": {},
  "deployedLinkReferences": {}
}