{
  "_format": "hh-sol-artifact-1",
  "contractName": "EmployeeRegistry",
  "sourceName": "contracts/EmployeeRegistry.sol",
  "abi": [
    {
      "inputs": [
        {
          "internalType": "address",
          "name": "companyRegistryAddr",
          "type": "address"
        }
      ],
      "stateMutability": "nonpayable",
      "type": "constructor"
    },
    {
      "anonymous": false,
      "inputs": [
        {
          "indexed": true,
          "internalType": "uint256",
          "name": "companyId",
          "type": "uint256"
        },
        {
          "indexed": true,
          "internalType": "address",
          "name": "employee",
          "type": "address"
        }
      ],
      "name": "EmployeeAccepted",
      "type": "event"
    },
    {
      "anonymous": false,
      "inputs": [
        {
          "indexed": true,
          "internalType": "uint256",
          "name": "companyId",
          "type": "uint256"
        },
        {
          "indexed": true,
          "internalType": "address",
          "name": "employee",
          "type": "address"
        },
        {
          "indexed": false,
          "internalType": "uint256",
          "name": "amount",
          "type": "uint256"
        },
        {
          "indexed": false,
          "internalType": "uint256",
          "name": "frequency",
          "type": "uint256"
        },
        {
          "indexed": false,
          "internalType": "uint256",
          "name": "lockPeriod",
          "type": "uint256"
        }
      ],
      "name": "EmployeeAdded",
      "type": "event"
    },
    {
      "anonymous": false,
      "inputs": [
        {
          "indexed": true,
          "internalType": "uint256",
          "name": "companyId",
          "type": "uint256"
        },
        {
          "indexed": true,
          "internalType": "address",
          "name": "employee",
          "type": "address"
        }
      ],
      "name": "EmployeeTerminated",
      "type": "event"
    },
    {
      "inputs": [
        {
          "internalType": "uint256",
          "name": "companyId",
          "type": "uint256"
        }
      ],
      "name": "acceptJob",
      "outputs": [],
      "stateMutability": "nonpayable",
      "type": "function"
    },
    {
      "inputs": [
        {
          "internalType": "uint256",
          "name": "companyId",
          "type": "uint256"
        },
        {
          "internalType": "address",
          "name": "employeeWallet",
          "type": "address"
        },
        {
          "internalType": "uint256",
          "name": "amount",
          "type": "uint256"
        },
        {
          "internalType": "uint256",
          "name": "frequency",
          "type": "uint256"
        },
        {
          "internalType": "uint256",
          "name": "lockPeriod",
          "type": "uint256"
        }
      ],
      "name": "addEmployee",
      "outputs": [],
      "stateMutability": "nonpayable",
      "type": "function"
    },
    {
      "inputs": [],
      "name": "companyRegistry",
      "outputs": [
        {
          "internalType": "contract CompanyRegistry",
          "name": "",
          "type": "address"
        }
      ],
      "stateMutability": "view",
      "type": "function"
    },
    {
      "inputs": [
        {
          "internalType": "uint256",
          "name": "",
          "type": "uint256"
        },
        {
          "internalType": "address",
          "name": "",
          "type": "address"
        }
      ],
      "name": "employees",
      "outputs": [
        {
          "internalType": "address",
          "name": "wallet",
          "type": "address"
        },
        {
          "internalType": "uint256",
          "name": "amount",
          "type": "uint256"
        },
        {
          "internalType": "uint256",
          "name": "frequency",
          "type": "uint256"
        },
        {
          "internalType": "uint256",
          "name": "lockPeriod",
          "type": "uint256"
        },
        {
          "internalType": "bool",
          "name": "accepted",
          "type": "bool"
        },
        {
          "internalType": "bool",
          "name": "exists",
          "type": "bool"
        },
        {
          "internalType": "bool",
          "name": "active",
          "type": "bool"
        }
      ],
      "stateMutability": "view",
      "type": "function"
    },
    {
      "inputs": [
        {
          "internalType": "uint256",
          "name": "companyId",
          "type": "uint256"
        },
        {
          "internalType": "address",
          "name": "employeeWallet",
          "type": "address"
        }
      ],
      "name": "getEmployee",
      "outputs": [
        {
          "components": [
            {
              "internalType": "address",
              "name": "wallet",
              "type": "address"
            },
            {
              "internalType": "uint256",
              "name": "amount",
              "type": "uint256"
            },
            {
              "internalType": "uint256",
              "name": "frequency",
              "type": "uint256"
            },
            {
              "internalType": "uint256",
              "name": "lockPeriod",
              "type": "uint256"
            },
            {
              "internalType": "bool",
              "name": "accepted",
              "type": "bool"
            },
            {
              "internalType": "bool",
              "name": "exists",
              "type": "bool"
            },
            {
              "internalType": "bool",
              "name": "active",
              "type": "bool"
            }
          ],
          "internalType": "struct EmployeeRegistry.Employee",
          "name": "",
          "type": "tuple"
        }
      ],
      "stateMutability": "view",
      "type": "function"
    },
    {
      "inputs": [
        {
          "internalType": "uint256",
          "name": "companyId",
          "type": "uint256"
        },
        {
          "internalType": "address",
          "name": "employeeWallet",
          "type": "address"
        }
      ],
      "name": "isEmployee",
      "outputs": [
        {
          "internalType": "bool",
          "name": "",
          "type": "bool"
        }
      ],
      "stateMutability": "view",
      "type": "function"
    },
    {
      "inputs": [
        {
          "internalType": "uint256",
          "name": "companyId",
          "type": "uint256"
        },
        {
          "internalType": "address",
          "name": "employeeWallet",
          "type": "address"
        }
      ],
      "name": "terminateEmployee",
      "outputs": [],
      "stateMutability": "nonpayable",
      "type": "function"
    }
  ],
  "bytecode": "0x60806040523480156200001157600080fd5b506040516200180a3803806200180a8339818101604052810190620000379190620000e8565b806000806101000a81548173ffffffffffffffffffffffffffffffffffffffff021916908373ffffffffffffffffffffffffffffffffffffffff160217905550506200011a565b600080fd5b600073ffffffffffffffffffffffffffffffffffffffff82169050919050565b6000620000b08262000083565b9050919050565b620000c281620000a3565b8114620000ce57600080fd5b50565b600081519050620000e281620000b7565b92915050565b6000602082840312156200010157620001006200007e565b5b60006200011184828501620000d1565b91505092915050565b6116e0806200012a6000396000f3fe608060405234801561001057600080fd5b506004361061007d5760003560e01c80639affcff91161005b5780639affcff914610104578063c51aba2b14610134578063e293a99114610152578063e8c8488e1461016e5761007d565b806321340f831461008257806328305675146100b257806363b2f3c9146100e8575b600080fd5b61009c60048036038101906100979190610d77565b61018a565b6040516100a99190610e7e565b60405180910390f35b6100cc60048036038101906100c79190610d77565b6102ba565b6040516100df9796959493929190610ec6565b60405180910390f35b61010260048036038101906100fd9190610f35565b610350565b005b61011e60048036038101906101199190610d77565b6104fd565b60405161012b9190610f62565b60405180910390f35b61013c610568565b6040516101499190610fdc565b60405180910390f35b61016c60048036038101906101679190610d77565b61058c565b005b61018860048036038101906101839190610ff7565b610845565b005b610192610c76565b6001600084815260200190815260200160002060008373ffffffffffffffffffffffffffffffffffffffff1673ffffffffffffffffffffffffffffffffffffffff1681526020019081526020016000206040518060e00160405290816000820160009054906101000a900473ffffffffffffffffffffffffffffffffffffffff1673ffffffffffffffffffffffffffffffffffffffff1673ffffffffffffffffffffffffffffffffffffffff1681526020016001820154815260200160028201548152602001600382015481526020016004820160009054906101000a900460ff161515151581526020016004820160019054906101000a900460ff161515151581526020016004820160029054906101000a900460ff161515151581525050905092915050565b6001602052816000526040600020602052806000526040600020600091509150508060000160009054906101000a900473ffffffffffffffffffffffffffffffffffffffff16908060010154908060020154908060030154908060040160009054906101000a900460ff16908060040160019054906101000a900460ff16908060040160029054906101000a900460ff16905087565b60006001600083815260200190815260200160002060003373ffffffffffffffffffffffffffffffffffffffff1673ffffffffffffffffffffffffffffffffffffffff16815260200190815260200160002090508060040160019054906101000a900460ff166103f5576040517f08c379a00000000000000000000000000000000000000000000000000000000081526004016103ec906110cf565b60405180910390fd5b8060040160009054906101000a900460ff1615610447576040517f08c379a000000000000000000000000000000000000000000000000000000000815260040161043e9061113b565b60405180910390fd5b8060040160029054906101000a900460ff16610498576040517f08c379a000000000000000000000000000000000000000000000000000000000815260040161048f906111a7565b60405180910390fd5b60018160040160006101000a81548160ff0219169083151502179055503373ffffffffffffffffffffffffffffffffffffffff16827ffa410d76eb4bfc252c52e3a9377610b1bab4e98966cafbfe6058e8ab2ef6041260405160405180910390a35050565b60006001600084815260200190815260200160002060008373ffffffffffffffffffffffffffffffffffffffff1673ffffffffffffffffffffffffffffffffffffffff16815260200190815260200160002060040160019054906101000a900460ff16905092915050565b60008054906101000a900473ffffffffffffffffffffffffffffffffffffffff1681565b8160008060009054906101000a900473ffffffffffffffffffffffffffffffffffffffff1673ffffffffffffffffffffffffffffffffffffffff166357d13917836040518263ffffffff1660e01b81526004016105e991906111c7565b600060405180830381865afa158015610606573d6000803e3d6000fd5b505050506040513d6000823e3d601f19601f8201168201806040525081019061062f919061140e565b90508060400151610675576040517f08c379a000000000000000000000000000000000000000000000000000000000815260040161066c906114a3565b60405180910390fd5b3373ffffffffffffffffffffffffffffffffffffffff16816000015173ffffffffffffffffffffffffffffffffffffffff16146106e7576040517f08c379a00000000000000000000000000000000000000000000000000000000081526004016106de9061150f565b60405180910390fd5b60006001600086815260200190815260200160002060008573ffffffffffffffffffffffffffffffffffffffff1673ffffffffffffffffffffffffffffffffffffffff16815260200190815260200160002090508060040160019054906101000a900460ff1661078c576040517f08c379a0000000000000000000000000000000000000000000000000000000008152600401610783906110cf565b60405180910390fd5b8060040160029054906101000a900460ff166107dd576040517f08c379a00000000000000000000000000000000000000000000000000000000081526004016107d49061157b565b60405180910390fd5b60008160040160026101000a81548160ff0219169083151502179055508373ffffffffffffffffffffffffffffffffffffffff16857f240475170718aede1f4947baf24529e4fdd5886097867b717074022ca8ddc3a560405160405180910390a35050505050565b8460008060009054906101000a900473ffffffffffffffffffffffffffffffffffffffff1673ffffffffffffffffffffffffffffffffffffffff166357d13917836040518263ffffffff1660e01b81526004016108a291906111c7565b600060405180830381865afa1580156108bf573d6000803e3d6000fd5b505050506040513d6000823e3d601f19601f820116820180604052508101906108e8919061140e565b9050806040015161092e576040517f08c379a0000000000000000000000000000000000000000000000000000000008152600401610925906114a3565b60405180910390fd5b3373ffffffffffffffffffffffffffffffffffffffff16816000015173ffffffffffffffffffffffffffffffffffffffff16146109a0576040517f08c379a00000000000000000000000000000000000000000000000000000000081526004016109979061150f565b60405180910390fd5b600073ffffffffffffffffffffffffffffffffffffffff168673ffffffffffffffffffffffffffffffffffffffff1603610a0f576040517f08c379a0000000000000000000000000000000000000000000000000000000008152600401610a06906115e7565b60405180910390fd5b6001600088815260200190815260200160002060008773ffffffffffffffffffffffffffffffffffffffff1673ffffffffffffffffffffffffffffffffffffffff16815260200190815260200160002060040160019054906101000a900460ff1615610ab0576040517f08c379a0000000000000000000000000000000000000000000000000000000008152600401610aa790611653565b60405180910390fd5b6040518060e001604052808773ffffffffffffffffffffffffffffffffffffffff168152602001868152602001858152602001848152602001600015158152602001600115158152602001600115158152506001600089815260200190815260200160002060008873ffffffffffffffffffffffffffffffffffffffff1673ffffffffffffffffffffffffffffffffffffffff16815260200190815260200160002060008201518160000160006101000a81548173ffffffffffffffffffffffffffffffffffffffff021916908373ffffffffffffffffffffffffffffffffffffffff16021790555060208201518160010155604082015181600201556060820151816003015560808201518160040160006101000a81548160ff02191690831515021790555060a08201518160040160016101000a81548160ff02191690831515021790555060c08201518160040160026101000a81548160ff0219169083151502179055509050508573ffffffffffffffffffffffffffffffffffffffff16877f8b08a74e527ebd1ea42bde4b6dd733763719c38955a6416bcac806c93eab4686878787604051610c6593929190611673565b60405180910390a350505050505050565b6040518060e00160405280600073ffffffffffffffffffffffffffffffffffffffff1681526020016000815260200160008152602001600081526020016000151581526020016000151581526020016000151581525090565b6000604051905090565b600080fd5b600080fd5b6000819050919050565b610cf681610ce3565b8114610d0157600080fd5b50565b600081359050610d1381610ced565b92915050565b600073ffffffffffffffffffffffffffffffffffffffff82169050919050565b6000610d4482610d19565b9050919050565b610d5481610d39565b8114610d5f57600080fd5b50565b600081359050610d7181610d4b565b92915050565b60008060408385031215610d8e57610d8d610cd9565b5b6000610d9c85828601610d04565b9250506020610dad85828601610d62565b9150509250929050565b610dc081610d39565b82525050565b610dcf81610ce3565b82525050565b60008115159050919050565b610dea81610dd5565b82525050565b60e082016000820151610e066000850182610db7565b506020820151610e196020850182610dc6565b506040820151610e2c6040850182610dc6565b506060820151610e3f6060850182610dc6565b506080820151610e526080850182610de1565b5060a0820151610e6560a0850182610de1565b5060c0820151610e7860c0850182610de1565b50505050565b600060e082019050610e936000830184610df0565b92915050565b610ea281610d39565b82525050565b610eb181610ce3565b82525050565b610ec081610dd5565b82525050565b600060e082019050610edb600083018a610e99565b610ee86020830189610ea8565b610ef56040830188610ea8565b610f026060830187610ea8565b610f0f6080830186610eb7565b610f1c60a0830185610eb7565b610f2960c0830184610eb7565b98975050505050505050565b600060208284031215610f4b57610f4a610cd9565b5b6000610f5984828501610d04565b91505092915050565b6000602082019050610f776000830184610eb7565b92915050565b6000819050919050565b6000610fa2610f9d610f9884610d19565b610f7d565b610d19565b9050919050565b6000610fb482610f87565b9050919050565b6000610fc682610fa9565b9050919050565b610fd681610fbb565b82525050565b6000602082019050610ff16000830184610fcd565b92915050565b600080600080600060a0868803121561101357611012610cd9565b5b600061102188828901610d04565b955050602061103288828901610d62565b945050604061104388828901610d04565b935050606061105488828901610d04565b925050608061106588828901610d04565b9150509295509295909350565b600082825260208201905092915050565b7f456d706c6f796565206e6f7420666f756e640000000000000000000000000000600082015250565b60006110b9601283611072565b91506110c482611083565b602082019050919050565b600060208201905081810360008301526110e8816110ac565b9050919050565b7f416c726561647920616363657074656400000000000000000000000000000000600082015250565b6000611125601083611072565b9150611130826110ef565b602082019050919050565b6000602082019050818103600083015261115481611118565b9050919050565b7f456d706c6f79656520696e616374697665000000000000000000000000000000600082015250565b6000611191601183611072565b915061119c8261115b565b602082019050919050565b600060208201905081810360008301526111c081611184565b9050919050565b60006020820190506111dc6000830184610ea8565b92915050565b600080fd5b6000601f19601f8301169050919050565b7f4e487b7100000000000000000000000000000000000000000000000000000000600052604160045260246000fd5b611230826111e7565b810181811067ffffffffffffffff8211171561124f5761124e6111f8565b5b80604052505050565b6000611262610ccf565b905061126e8282611227565b919050565b600080fd5b60008151905061128781610d4b565b92915050565b600080fd5b600080fd5b600067ffffffffffffffff8211156112b2576112b16111f8565b5b6112bb826111e7565b9050602081019050919050565b60005b838110156112e65780820151818401526020810190506112cb565b60008484015250505050565b600061130561130084611297565b611258565b90508281526020810184848401111561132157611320611292565b5b61132c8482856112c8565b509392505050565b600082601f8301126113495761134861128d565b5b81516113598482602086016112f2565b91505092915050565b61136b81610dd5565b811461137657600080fd5b50565b60008151905061138881611362565b92915050565b6000606082840312156113a4576113a36111e2565b5b6113ae6060611258565b905060006113be84828501611278565b600083015250602082015167ffffffffffffffff8111156113e2576113e1611273565b5b6113ee84828501611334565b602083015250604061140284828501611379565b60408301525092915050565b60006020828403121561142457611423610cd9565b5b600082015167ffffffffffffffff81111561144257611441610cde565b5b61144e8482850161138e565b91505092915050565b7f436f6d70616e7920646f6573206e6f7420657869737400000000000000000000600082015250565b600061148d601683611072565b915061149882611457565b602082019050919050565b600060208201905081810360008301526114bc81611480565b9050919050565b7f4e6f7420636f6d70616e792061646d696e000000000000000000000000000000600082015250565b60006114f9601183611072565b9150611504826114c3565b602082019050919050565b60006020820190508181036000830152611528816114ec565b9050919050565b7f416c726561647920696e61637469766500000000000000000000000000000000600082015250565b6000611565601083611072565b91506115708261152f565b602082019050919050565b6000602082019050818103600083015261159481611558565b9050919050565b7f496e76616c69642077616c6c6574000000000000000000000000000000000000600082015250565b60006115d1600e83611072565b91506115dc8261159b565b602082019050919050565b60006020820190508181036000830152611600816115c4565b9050919050565b7f416c726561647920616464656400000000000000000000000000000000000000600082015250565b600061163d600d83611072565b915061164882611607565b602082019050919050565b6000602082019050818103600083015261166c81611630565b9050919050565b60006060820190506116886000830186610ea8565b6116956020830185610ea8565b6116a26040830184610ea8565b94935050505056fea264697066735822122025261be949e804d9a4793ec5a0ce16213e1cc40414019a830f426d57045e55a264736f6c63430008140033",
  "linkReferences": {},
  "deployedLinkReferences": {}
}