{
  "_format": "hh-sol-artifact-1",
  "contractName": "PaymentVault",
  "sourceName": "contracts/PaymentVault.sol",
  "abi": [
    {
      "inputs": [
        {
          "internalType": "address",
          "name": "usdtAddress",
          "type": "address"
        }
      ],
      "stateMutability": "nonpayable",
      "type": "constructor"
    },
    {
      "anonymous": false,
      "inputs": [
        {
          "indexed": true,
          "internalType": "uint256",
          "name": "paymentId",
          "type": "uint256"
        },
        {
          "indexed": true,
          "internalType": "address",
          "name": "employee",
          "type": "address"
        },
        {
          "indexed": false,
          "internalType": "uint256",
          "name": "amount",
          "type": "uint256"
        }
      ],
      "name": "PaymentClaimed",
      "type": "event"
    },
    {
      "anonymous": false,
      "inputs": [
        {
          "indexed": true,
          "internalType": "uint256",
          "name": "paymentId",
          "type": "uint256"
        },
        {
          "indexed": true,
          "internalType": "address",
          "name": "company",
          "type": "address"
        },
        {
          "indexed": true,
          "internalType": "address",
          "name": "employee",
          "type": "address"
        },
        {
          "indexed": false,
          "internalType": "uint256",
          "name": "amount",
          "type": "uint256"
        },
        {
          "indexed": false,
          "internalType": "uint256",
          "name": "releaseAt",
          "type": "uint256"
        }
      ],
      "name": "PaymentCreated",
      "type": "event"
    },
    {
      "inputs": [
        {
          "internalType": "uint256",
          "name": "paymentId",
          "type": "uint256"
        }
      ],
      "name": "claim",
      "outputs": [],
      "stateMutability": "nonpayable",
      "type": "function"
    },
    {
      "inputs": [
        {
          "internalType": "uint256",
          "name": "paymentId",
          "type": "uint256"
        },
        {
          "internalType": "address",
          "name": "employee",
          "type": "address"
        }
      ],
      "name": "claimFor",
      "outputs": [],
      "stateMutability": "nonpayable",
      "type": "function"
    },
    {
      "inputs": [
        {
          "internalType": "address",
          "name": "company",
          "type": "address"
        },
        {
          "internalType": "address",
          "name": "employee",
          "type": "address"
        },
        {
          "internalType": "uint256",
          "name": "amount",
          "type": "uint256"
        },
        {
          "internalType": "uint256",
          "name": "releaseAt",
          "type": "uint256"
        }
      ],
      "name": "createPayment",
      "outputs": [
        {
          "internalType": "uint256",
          "name": "paymentId",
          "type": "uint256"
        }
      ],
      "stateMutability": "nonpayable",
      "type": "function"
    },
    {
      "inputs": [],
      "name": "nextPaymentId",
      "outputs": [
        {
          "internalType": "uint256",
          "name": "",
          "type": "uint256"
        }
      ],
      "stateMutability": "view",
      "type": "function"
    },
    {
      "inputs": [
        {
          "internalType": "uint256",
          "name": "",
          "type": "uint256"
        }
      ],
      "name": "payments",
      "outputs": [
        {
          "internalType": "uint256",
          "name": "id",
          "type": "uint256"
        },
        {
          "internalType": "address",
          "name": "company",
          "type": "address"
        },
        {
          "internalType": "address",
          "name": "employee",
          "type": "address"
        },
        {
          "internalType": "uint256",
          "name": "amount",
          "type": "uint256"
        },
        {
          "internalType": "uint256",
          "name": "releaseAt",
          "type": "uint256"
        },
        {
          "internalType": "bool",
          "name": "claimed",
          "type": "bool"
        }
      ],
      "stateMutability": "view",
      "type": "function"
    },
    {
      "inputs": [],
      "name": "payrollManager",
      "outputs": [
        {
          "internalType": "address",
          "name": "",
          "type": "address"
        }
      ],
      "stateMutability": "view",
      "type": "function"
    },
    {
      "inputs": [
        {
          "internalType": "address",
          "name": "manager",
          "type": "address"
        }
      ],
      "name": "setPayrollManager",
      "outputs": [],
      "stateMutability": "nonpayable",
      "type": "function"
    },
    {
      "inputs": [],
      "name": "usdt",
      "outputs": [
        {
          "internalType": "contract IERC20",
          "name": "",
          "type": "address"
        }
      ],
      "stateMutability": "view",
      "type": "function"
    }
  ],
  "bytecode": "0x60806040523480156200001157600080fd5b50604051620015e5380380620015e58339818101604052810190620000379190620000e8565b806000806101000a81548173ffffffffffffffffffffffffffffffffffffffff021916908373ffffffffffffffffffffffffffffffffffffffff160217905550506200011a565b600080fd5b600073ffffffffffffffffffffffffffffffffffffffff82169050919050565b6000620000b08262000083565b9050919050565b620000c281620000a3565b8114620000ce57600080fd5b50565b600081519050620000e281620000b7565b92915050565b6000602082840312156200010157620001006200007e565b5b60006200011184828501620000d1565b91505092915050565b6114bb806200012a6000396000f3fe608060405234801561001057600080fd5b50600436106100885760003560e01c8063965501c71161005b578063965501c7146101185780639b22b92014610136578063b4c6e76514610154578063f86c2af81461017057610088565b806310ee3f001461008d5780632f48ab7d146100a9578063379607f5146100c757806387d81789146100e3575b600080fd5b6100a760048036038101906100a29190610d3b565b6101a0565b005b6100b16104c8565b6040516100be9190610dda565b60405180910390f35b6100e160048036038101906100dc9190610df5565b6104ec565b005b6100fd60048036038101906100f89190610df5565b6107cb565b60405161010f96959493929190610e5b565b60405180910390f35b610120610854565b60405161012d9190610ebc565b60405180910390f35b61013e61087a565b60405161014b9190610ed7565b60405180910390f35b61016e60048036038101906101699190610ef2565b610880565b005b61018a60048036038101906101859190610f1f565b610955565b6040516101979190610ed7565b60405180910390f35b600160009054906101000a900473ffffffffffffffffffffffffffffffffffffffff1673ffffffffffffffffffffffffffffffffffffffff163373ffffffffffffffffffffffffffffffffffffffff1614610230576040517f08c379a000000000000000000000000000000000000000000000000000000000815260040161022790610fe3565b60405180910390fd5b60006003600084815260200190815260200160002090508060050160009054906101000a900460ff1615610299576040517f08c379a00000000000000000000000000000000000000000000000000000000081526004016102909061104f565b60405180910390fd5b8173ffffffffffffffffffffffffffffffffffffffff168160020160009054906101000a900473ffffffffffffffffffffffffffffffffffffffff1673ffffffffffffffffffffffffffffffffffffffff161461032b576040517f08c379a0000000000000000000000000000000000000000000000000000000008152600401610322906110bb565b60405180910390fd5b8060040154421015610372576040517f08c379a000000000000000000000000000000000000000000000000000000000815260040161036990611127565b60405180910390fd5b60018160050160006101000a81548160ff02191690831515021790555060008054906101000a900473ffffffffffffffffffffffffffffffffffffffff1673ffffffffffffffffffffffffffffffffffffffff1663a9059cbb8383600301546040518363ffffffff1660e01b81526004016103ee929190611147565b6020604051808303816000875af115801561040d573d6000803e3d6000fd5b505050506040513d601f19601f82011682018060405250810190610431919061119c565b610470576040517f08c379a000000000000000000000000000000000000000000000000000000000815260040161046790611215565b60405180910390fd5b8173ffffffffffffffffffffffffffffffffffffffff16837fdd74eb9cba06f514be98342b0ed0290146aee9feaf27e8a7ddcb151bb43dac8683600301546040516104bb9190610ed7565b60405180910390a3505050565b60008054906101000a900473ffffffffffffffffffffffffffffffffffffffff1681565b60006003600083815260200190815260200160002090508060050160009054906101000a900460ff1615610555576040517f08c379a000000000000000000000000000000000000000000000000000000000815260040161054c9061104f565b60405180910390fd5b3373ffffffffffffffffffffffffffffffffffffffff168160020160009054906101000a900473ffffffffffffffffffffffffffffffffffffffff1673ffffffffffffffffffffffffffffffffffffffff16146105e7576040517f08c379a00000000000000000000000000000000000000000000000000000000081526004016105de90611281565b60405180910390fd5b806004015442101561062e576040517f08c379a000000000000000000000000000000000000000000000000000000000815260040161062590611127565b60405180910390fd5b60018160050160006101000a81548160ff02191690831515021790555060008054906101000a900473ffffffffffffffffffffffffffffffffffffffff1673ffffffffffffffffffffffffffffffffffffffff1663a9059cbb8260020160009054906101000a900473ffffffffffffffffffffffffffffffffffffffff1683600301546040518363ffffffff1660e01b81526004016106ce929190611147565b6020604051808303816000875af11580156106ed573d6000803e3d6000fd5b505050506040513d601f19601f82011682018060405250810190610711919061119c565b610750576040517f08c379a000000000000000000000000000000000000000000000000000000000815260040161074790611215565b60405180910390fd5b8060020160009054906101000a900473ffffffffffffffffffffffffffffffffffffffff1673ffffffffffffffffffffffffffffffffffffffff16827fdd74eb9cba06f514be98342b0ed0290146aee9feaf27e8a7ddcb151bb43dac8683600301546040516107bf9190610ed7565b60405180910390a35050565b60036020528060005260406000206000915090508060000154908060010160009054906101000a900473ffffffffffffffffffffffffffffffffffffffff16908060020160009054906101000a900473ffffffffffffffffffffffffffffffffffffffff16908060030154908060040154908060050160009054906101000a900460ff16905086565b600160009054906101000a900473ffffffffffffffffffffffffffffffffffffffff1681565b60025481565b600073ffffffffffffffffffffffffffffffffffffffff16600160009054906101000a900473ffffffffffffffffffffffffffffffffffffffff1673ffffffffffffffffffffffffffffffffffffffff1614610911576040517f08c379a0000000000000000000000000000000000000000000000000000000008152600401610908906112ed565b60405180910390fd5b80600160006101000a81548173ffffffffffffffffffffffffffffffffffffffff021916908373ffffffffffffffffffffffffffffffffffffffff16021790555050565b6000600160009054906101000a900473ffffffffffffffffffffffffffffffffffffffff1673ffffffffffffffffffffffffffffffffffffffff163373ffffffffffffffffffffffffffffffffffffffff16146109e7576040517f08c379a00000000000000000000000000000000000000000000000000000000081526004016109de90610fe3565b60405180910390fd5b600073ffffffffffffffffffffffffffffffffffffffff168473ffffffffffffffffffffffffffffffffffffffff1603610a56576040517f08c379a0000000000000000000000000000000000000000000000000000000008152600401610a4d906110bb565b60405180910390fd5b60008311610a99576040517f08c379a0000000000000000000000000000000000000000000000000000000008152600401610a9090611359565b60405180910390fd5b428211610adb576040517f08c379a0000000000000000000000000000000000000000000000000000000008152600401610ad2906113c5565b60405180910390fd5b60026000815480929190610aee90611414565b9190505590506040518060c001604052808281526020018673ffffffffffffffffffffffffffffffffffffffff1681526020018573ffffffffffffffffffffffffffffffffffffffff16815260200184815260200183815260200160001515815250600360008381526020019081526020016000206000820151816000015560208201518160010160006101000a81548173ffffffffffffffffffffffffffffffffffffffff021916908373ffffffffffffffffffffffffffffffffffffffff16021790555060408201518160020160006101000a81548173ffffffffffffffffffffffffffffffffffffffff021916908373ffffffffffffffffffffffffffffffffffffffff160217905550606082015181600301556080820151816004015560a08201518160050160006101000a81548160ff0219169083151502179055509050508373ffffffffffffffffffffffffffffffffffffffff168573ffffffffffffffffffffffffffffffffffffffff16827f33fb9d17e2e51070b7bd9a59de4a82d7338ab61abc4330a7bb2d479e14f72d9e8686604051610c9292919061145c565b60405180910390a4949350505050565b600080fd5b6000819050919050565b610cba81610ca7565b8114610cc557600080fd5b50565b600081359050610cd781610cb1565b92915050565b600073ffffffffffffffffffffffffffffffffffffffff82169050919050565b6000610d0882610cdd565b9050919050565b610d1881610cfd565b8114610d2357600080fd5b50565b600081359050610d3581610d0f565b92915050565b60008060408385031215610d5257610d51610ca2565b5b6000610d6085828601610cc8565b9250506020610d7185828601610d26565b9150509250929050565b6000819050919050565b6000610da0610d9b610d9684610cdd565b610d7b565b610cdd565b9050919050565b6000610db282610d85565b9050919050565b6000610dc482610da7565b9050919050565b610dd481610db9565b82525050565b6000602082019050610def6000830184610dcb565b92915050565b600060208284031215610e0b57610e0a610ca2565b5b6000610e1984828501610cc8565b91505092915050565b610e2b81610ca7565b82525050565b610e3a81610cfd565b82525050565b60008115159050919050565b610e5581610e40565b82525050565b600060c082019050610e706000830189610e22565b610e7d6020830188610e31565b610e8a6040830187610e31565b610e976060830186610e22565b610ea46080830185610e22565b610eb160a0830184610e4c565b979650505050505050565b6000602082019050610ed16000830184610e31565b92915050565b6000602082019050610eec6000830184610e22565b92915050565b600060208284031215610f0857610f07610ca2565b5b6000610f1684828501610d26565b91505092915050565b60008060008060808587031215610f3957610f38610ca2565b5b6000610f4787828801610d26565b9450506020610f5887828801610d26565b9350506040610f6987828801610cc8565b9250506060610f7a87828801610cc8565b91505092959194509250565b600082825260208201905092915050565b7f4e6f7420706179726f6c6c206d616e6167657200000000000000000000000000600082015250565b6000610fcd601383610f86565b9150610fd882610f97565b602082019050919050565b60006020820190508181036000830152610ffc81610fc0565b9050919050565b7f416c726561647920636c61696d65640000000000000000000000000000000000600082015250565b6000611039600f83610f86565b915061104482611003565b602082019050919050565b600060208201905081810360008301526110688161102c565b9050919050565b7f496e76616c696420656d706c6f79656500000000000000000000000000000000600082015250565b60006110a5601083610f86565b91506110b08261106f565b602082019050919050565b600060208201905081810360008301526110d481611098565b9050919050565b7f4c6f636b65640000000000000000000000000000000000000000000000000000600082015250565b6000611111600683610f86565b915061111c826110db565b602082019050919050565b6000602082019050818103600083015261114081611104565b9050919050565b600060408201905061115c6000830185610e31565b6111696020830184610e22565b9392505050565b61117981610e40565b811461118457600080fd5b50565b60008151905061119681611170565b92915050565b6000602082840312156111b2576111b1610ca2565b5b60006111c084828501611187565b91505092915050565b7f55534454207472616e73666572206661696c6564000000000000000000000000600082015250565b60006111ff601483610f86565b915061120a826111c9565b602082019050919050565b6000602082019050818103600083015261122e816111f2565b9050919050565b7f4e6f7420656d706c6f7965650000000000000000000000000000000000000000600082015250565b600061126b600c83610f86565b915061127682611235565b602082019050919050565b6000602082019050818103600083015261129a8161125e565b9050919050565b7f416c726561647920736574000000000000000000000000000000000000000000600082015250565b60006112d7600b83610f86565b91506112e2826112a1565b602082019050919050565b60006020820190508181036000830152611306816112ca565b9050919050565b7f496e76616c696420616d6f756e74000000000000000000000000000000000000600082015250565b6000611343600e83610f86565b915061134e8261130d565b602082019050919050565b6000602082019050818103600083015261137281611336565b9050919050565b7f496e76616c69642072656c656173652074696d65000000000000000000000000600082015250565b60006113af601483610f86565b91506113ba82611379565b602082019050919050565b600060208201905081810360008301526113de816113a2565b9050919050565b7f4e487b7100000000000000000000000000000000000000000000000000000000600052601160045260246000fd5b600061141f82610ca7565b91507fffffffffffffffffffffffffffffffffffffffffffffffffffffffffffffffff8203611451576114506113e5565b5b600182019050919050565b60006040820190506114716000830185610e22565b61147e6020830184610e22565b939250505056fea2646970667358221220a66df91dc158eba33af563d2b46a19f2d4c4373edc136deadba7afa0b95e7d5364736f6c63430008140033",
  "linkReferences": {},
  "deployedLinkReferences": {}
}