{
  "_format": "hh-sol-artifact-1",
  "contractName": "PayrollManager",
  "sourceName": "contracts/PayrollManager.sol",
  "abi": [
    {
      "inputs": [
        {
          "internalType": "address",
          "name": "companyRegistryAddr",
          "type": "address"
        },
        {
          "internalType": "address",
          "name": "employeeRegistryAddr",
          "type": "address"
        },
        {
          "internalType": "address",
          "name": "paymentVaultAddr",
          "type": "address"
        }
      ],
      "stateMutability": "nonpayable",
      "type": "constructor"
    },
    {
      "anonymous": false,
      "inputs": [
        {
          "indexed": true,
          "internalType": "uint256",
          "name": "companyId",
          "type": "uint256"
        },
        {
          "indexed": false,
          "internalType": "uint256",
          "name": "timestamp",
          "type": "uint256"
        },
        {
          "indexed": false,
          "internalType": "uint256",
          "name": "paymentsCount",
          "type": "uint256"
        }
      ],
      "name": "PayrollRunCreated",
      "type": "event"
    },
    {
      "inputs": [
        {
          "internalType": "uint256",
          "name": "paymentId",
          "type": "uint256"
        },
        {
          "internalType": "address",
          "name": "employee",
          "type": "address"
        }
      ],
      "name": "claimFor",
      "outputs": [],
      "stateMutability": "nonpayable",
      "type": "function"
    },
    {
      "inputs": [],
      "name": "companyRegistry",
      "outputs": [
        {
          "internalType": "contract CompanyRegistry",
          "name": "",
          "type": "address"
        }
      ],
      "stateMutability": "view",
      "type": "function"
    },
    {
      "inputs": [
        {
          "internalType": "uint256",
          "name": "companyId",
          "type": "uint256"
        },
        {
          "internalType": "address[]",
          "name": "employeeWallets",
          "type": "address[]"
        }
      ],
      "name": "createPayrollRun",
      "outputs": [],
      "stateMutability": "nonpayable",
      "type": "function"
    },
    {
      "inputs": [],
      "name": "employeeRegistry",
      "outputs": [
        {
          "internalType": "contract EmployeeRegistry",
          "name": "",
          "type": "address"
        }
      ],
      "stateMutability": "view",
      "type": "function"
    },
    {
      "inputs": [],
      "name": "paymentVault",
      "outputs": [
        {
          "internalType": "contract PaymentVault",
          "name": "",
          "type": "address"
        }
      ],
      "stateMutability": "view",
      "type": "function"
    }
  ],
  "bytecode": "0x60806040523480156200001157600080fd5b5060405162000fda38038062000fda83398181016040528101906200003791906200016c565b826000806101000a81548173ffffffffffffffffffffffffffffffffffffffff021916908373ffffffffffffffffffffffffffffffffffffffff16021790555081600160006101000a81548173ffffffffffffffffffffffffffffffffffffffff021916908373ffffffffffffffffffffffffffffffffffffffff16021790555080600260006101000a81548173ffffffffffffffffffffffffffffffffffffffff021916908373ffffffffffffffffffffffffffffffffffffffff160217905550505050620001c8565b600080fd5b600073ffffffffffffffffffffffffffffffffffffffff82169050919050565b6000620001348262000107565b9050919050565b620001468162000127565b81146200015257600080fd5b50565b60008151905062000166816200013b565b92915050565b60008060006060848603121562000188576200018762000102565b5b6000620001988682870162000155565b9350506020620001ab8682870162000155565b9250506040620001be8682870162000155565b9150509250925092565b610e0280620001d86000396000f3fe608060405234801561001057600080fd5b50600436106100575760003560e01c806310ee3f001461005c5780636ddc9425146100785780638857899614610096578063c51aba2b146100b2578063ed3916f7146100d0575b600080fd5b610076600480360381019061007191906105e2565b6100ee565b005b610080610181565b60405161008d9190610681565b60405180910390f35b6100b060048036038101906100ab9190610701565b6101a7565b005b6100ba6104f0565b6040516100c79190610782565b60405180910390f35b6100d8610514565b6040516100e591906107be565b60405180910390f35b600260009054906101000a900473ffffffffffffffffffffffffffffffffffffffff1673ffffffffffffffffffffffffffffffffffffffff166310ee3f0083836040518363ffffffff1660e01b815260040161014b9291906107f7565b600060405180830381600087803b15801561016557600080fd5b505af1158015610179573d6000803e3d6000fd5b505050505050565b600160009054906101000a900473ffffffffffffffffffffffffffffffffffffffff1681565b8260008060009054906101000a900473ffffffffffffffffffffffffffffffffffffffff1673ffffffffffffffffffffffffffffffffffffffff166357d13917836040518263ffffffff1660e01b81526004016102049190610820565b600060405180830381865afa158015610221573d6000803e3d6000fd5b505050506040513d6000823e3d601f19601f8201168201806040525081019061024a9190610a6e565b90503373ffffffffffffffffffffffffffffffffffffffff16816000015173ffffffffffffffffffffffffffffffffffffffff16146102be576040517f08c379a00000000000000000000000000000000000000000000000000000000081526004016102b590610b14565b60405180910390fd5b6000805b858590508110156104ad5760008686838181106102e2576102e1610b34565b5b90506020020160208101906102f79190610b63565b90506000600160009054906101000a900473ffffffffffffffffffffffffffffffffffffffff1673ffffffffffffffffffffffffffffffffffffffff166321340f838a846040518363ffffffff1660e01b81526004016103589291906107f7565b60e060405180830381865afa158015610375573d6000803e3d6000fd5b505050506040513d601f19601f820116820180604052508101906103999190610c59565b90508060a001516103ab57505061049a565b80608001516103bb57505061049a565b8060c001516103cb57505061049a565b60008160600151426103dd9190610cb5565b9050600260009054906101000a900473ffffffffffffffffffffffffffffffffffffffff1673ffffffffffffffffffffffffffffffffffffffff1663f86c2af833858560200151856040518563ffffffff1660e01b81526004016104449493929190610ce9565b6020604051808303816000875af1158015610463573d6000803e3d6000fd5b505050506040513d601f19601f820116820180604052508101906104879190610d2e565b50848061049390610d5b565b9550505050505b80806104a590610d5b565b9150506102c2565b50857f88a142d4c63981b503042b8616cc10e483620c72ec5280712a2f547494d409d142836040516104e0929190610da3565b60405180910390a2505050505050565b60008054906101000a900473ffffffffffffffffffffffffffffffffffffffff1681565b600260009054906101000a900473ffffffffffffffffffffffffffffffffffffffff1681565b6000604051905090565b600080fd5b600080fd5b6000819050919050565b6105618161054e565b811461056c57600080fd5b50565b60008135905061057e81610558565b92915050565b600073ffffffffffffffffffffffffffffffffffffffff82169050919050565b60006105af82610584565b9050919050565b6105bf816105a4565b81146105ca57600080fd5b50565b6000813590506105dc816105b6565b92915050565b600080604083850312156105f9576105f8610544565b5b60006106078582860161056f565b9250506020610618858286016105cd565b9150509250929050565b6000819050919050565b600061064761064261063d84610584565b610622565b610584565b9050919050565b60006106598261062c565b9050919050565b600061066b8261064e565b9050919050565b61067b81610660565b82525050565b60006020820190506106966000830184610672565b92915050565b600080fd5b600080fd5b600080fd5b60008083601f8401126106c1576106c061069c565b5b8235905067ffffffffffffffff8111156106de576106dd6106a1565b5b6020830191508360208202830111156106fa576106f96106a6565b5b9250929050565b60008060006040848603121561071a57610719610544565b5b60006107288682870161056f565b935050602084013567ffffffffffffffff81111561074957610748610549565b5b610755868287016106ab565b92509250509250925092565b600061076c8261064e565b9050919050565b61077c81610761565b82525050565b60006020820190506107976000830184610773565b92915050565b60006107a88261064e565b9050919050565b6107b88161079d565b82525050565b60006020820190506107d360008301846107af565b92915050565b6107e28161054e565b82525050565b6107f1816105a4565b82525050565b600060408201905061080c60008301856107d9565b61081960208301846107e8565b9392505050565b600060208201905061083560008301846107d9565b92915050565b600080fd5b6000601f19601f8301169050919050565b7f4e487b7100000000000000000000000000000000000000000000000000000000600052604160045260246000fd5b61088982610840565b810181811067ffffffffffffffff821117156108a8576108a7610851565b5b80604052505050565b60006108bb61053a565b90506108c78282610880565b919050565b600080fd5b6000815190506108e0816105b6565b92915050565b600080fd5b600067ffffffffffffffff82111561090657610905610851565b5b61090f82610840565b9050602081019050919050565b60005b8381101561093a57808201518184015260208101905061091f565b60008484015250505050565b6000610959610954846108eb565b6108b1565b905082815260208101848484011115610975576109746108e6565b5b61098084828561091c565b509392505050565b600082601f83011261099d5761099c61069c565b5b81516109ad848260208601610946565b91505092915050565b60008115159050919050565b6109cb816109b6565b81146109d657600080fd5b50565b6000815190506109e8816109c2565b92915050565b600060608284031215610a0457610a0361083b565b5b610a0e60606108b1565b90506000610a1e848285016108d1565b600083015250602082015167ffffffffffffffff811115610a4257610a416108cc565b5b610a4e84828501610988565b6020830152506040610a62848285016109d9565b60408301525092915050565b600060208284031215610a8457610a83610544565b5b600082015167ffffffffffffffff811115610aa257610aa1610549565b5b610aae848285016109ee565b91505092915050565b600082825260208201905092915050565b7f4e6f7420636f6d70616e792061646d696e000000000000000000000000000000600082015250565b6000610afe601183610ab7565b9150610b0982610ac8565b602082019050919050565b60006020820190508181036000830152610b2d81610af1565b9050919050565b7f4e487b7100000000000000000000000000000000000000000000000000000000600052603260045260246000fd5b600060208284031215610b7957610b78610544565b5b6000610b87848285016105cd565b91505092915050565b600081519050610b9f81610558565b92915050565b600060e08284031215610bbb57610bba61083b565b5b610bc560e06108b1565b90506000610bd5848285016108d1565b6000830152506020610be984828501610b90565b6020830152506040610bfd84828501610b90565b6040830152506060610c1184828501610b90565b6060830152506080610c25848285016109d9565b60808301525060a0610c39848285016109d9565b60a08301525060c0610c4d848285016109d9565b60c08301525092915050565b600060e08284031215610c6f57610c6e610544565b5b6000610c7d84828501610ba5565b91505092915050565b7f4e487b7100000000000000000000000000000000000000000000000000000000600052601160045260246000fd5b6000610cc08261054e565b9150610ccb8361054e565b9250828201905080821115610ce357610ce2610c86565b5b92915050565b6000608082019050610cfe60008301876107e8565b610d0b60208301866107e8565b610d1860408301856107d9565b610d2560608301846107d9565b95945050505050565b600060208284031215610d4457610d43610544565b5b6000610d5284828501610b90565b91505092915050565b6000610d668261054e565b91507fffffffffffffffffffffffffffffffffffffffffffffffffffffffffffffffff8203610d9857610d97610c86565b5b600182019050919050565b6000604082019050610db860008301856107d9565b610dc560208301846107d9565b939250505056fea2646970667358221220c85c83361d0e189a0c803bf24110b10adbfb9408fb8fd4369f5f425461a9323164736f6c63430008140033",
  "linkReferences": {},
  "deployedLinkReferences": {}
}